:100000000C9405011895189518951895189518953C
:100010001895189518951895189518951895189578
:100020001895189518951895189518951895189568
:100030001895189518951895189518951895189558
:100040001895189518951895189518951895189548
:100050001895189518951895189518951895189538
:100060001895189518951895AC019801220F331F13
:10007000F901E05CFE4F20812BB99801220F331F5C
:10008000F901E05CFE4F80819181079749F0000FF4
:10009000111FF801E05CFE4F80819181039711F4FC
:1000A000289A01C02898CA01089546E050E00091BE
:1000B0008400109185000E9419018A010F5F1F4F73
:1000C00008950C01B9012998CFDF2A9A0FE11EE4A7
:1000D00001501040E9F700C00000E4E5F1E0808144
:1000E0009181029759F42A98299A8B01BDDF0FE17B
:1000F0001EE401501040E9F700C00000C00108955F
:100100000E94440160E070E02224332404C001E036
:10011000200E00E0301E42E050E081010E942C01E0
:10012000452BF9F480E090E0A0E0B0E004C08F5FE0
:100130009F4FAF4FBF4F813900ED900703E0A007FD
:1001400000E0B00774F4299A01E010E08DDF329BE3
:10015000EECFE4E5F1E001E010E00083118361E01F
:1001600070E042E050E081010E942C01413050409B
:10017000F9F480E090E0A0E0B0E008C0299A02E045
:1001800010E072DF8F5F9F4FAF4FBF4F813900ED9F
:10019000900703E0A00700E0B00754F4329BEECFD5
:1001A000E4E5F1E002E010E00083118361E070E03B
:1001B000613000E0700709F0AACFE4E00C94490137
:1001C0000E94440180E090E02224332484B10FEFA8
:1001D00004B99AB10FEF0AB9A7B10FEF07B90091AF
:1001E00081000160009381008BDF06C011969101B0
:1001F0008C0167DF329BFACF58DFC80156DF180148
:10020000A0E0B0E0F4CF0C947A010FE30DBF01E061
:100210000EBFC0E2D1E00E945201002311F00E9403
:1002200060010E94E0000E9417010C9403010C94ED
:10023000030100241124E0E1001F111FEA9542F0A0
:10024000001C111C04161506B8F3041A150AF4CF85
:10025000A001009510950895FF27552312F4F16031
:100260000FD0112312F4F09507D00E941901F0FD70
:1002700003D0F1FD05C00895119501951040089532
:100280005195419550400895BA93AA939A938A93B1
:100290000895BB81AA8199818881F0E0EC0FFD1F50
:1002A000EF01089501E0089520E02D9301501040E2
:1002B000E1F7089525912D9301501040D9F7089545
:1002C00086EF92E0FC0105911491FC013296A59114
:1002D000B491FC01349625913491422F432B19F0AF
:1002E000F901E8DF01C0E0DF069613E082309107F4
:1002F00048F30895FFCF02005401000014004001AC
:1003000002032300EF00930087004F000700030063
:06031000AF000000040034
:00000001FF
