:100000000C947C030C9484020C943203189518957C
:100010001895189518951895189518951895189578
:100020001895189518951895189518951895189568
:100030001895189518951895189518951895189558
:100040000C945302189518951895189518951895AD
:100050001895189518951895189518951895189538
:10006000189518951895189500E10AB900E00BB994
:100070000FEF07B90FEF04B9009169000160009319
:10008000690000916900086000936900E89AE99AA4
:1000900000E00093810005B5016005BD00916E0090
:1000A000016000936E000895409A102F12951F7002
:1000B00015B91AEF00001A95E9F740981AEF0000F9
:1000C0001A95E9F7409A05B90AEF00000A95E9F791
:1000D00040980AEF00000A95E9F7089507EA11E64B
:1000E00001501040E9F700C00000419803E3DCDF55
:1000F00002E3DADF08E2D8DF06E0D6DF0CE0D4DF87
:1001000001E0D2DF07EA11E601501040E9F700C034
:1001100000000895419801E0C7DF0FE718E321E0F0
:10012000015010402040E1F700C00000419A0895BE
:1001300041980AE8B9DF0BED15E001501040E9F7EE
:1001400000C00000419A0895419800E8ADDF0BED32
:1001500015E001501040E9F700C00000419A0895F1
:100160000E94C6036097E5E5F1E0208131817CDFE4
:10017000B5DF419A8E010B5F1F4FE0E4F1E04BE0E9
:1001800050E00E94BB0303E60B830DE60C837894DA
:100190001EC0EBE4F1E000811181043640E0140759
:1001A0002CF00DE281DF0DE27FDFC2DFE3E5F1E05D
:1001B00000811181012B59F4E3E5F1E001E010E049
:1001C000008311835C9A04E60A95F1F75C98E5E5F3
:1001D000F1E000811181012B09F0F6C0E5E5F1E0C5
:1001E000008111810217130729F094DFE5E5F1E0A2
:1001F00020813181EBE4F1E000811181083E43E090
:1002000014070CF057C0EBE4F1E0008111810436D3
:1002100040E014070CF44EC04AE050E0EBE4F1E09B
:10022000008111810E94A303405D4A834AE050E0AF
:10023000EBE4F1E0008111810E94A303EBE4F1E023
:10024000008311834AE050E0EBE4F1E0008111818A
:100250000E94A303405D49834AE050E0EBE4F1E0F3
:10026000008111810E94A303EBE4F1E0008311837C
:100270004AE050E0EBE4F1E0008111810E94A30329
:10028000405D4883E0E0F0E006C0DE01AE0FBF1F36
:100290000C910ADF3196E53000E0F007B4F354DF4B
:1002A0004FE352E46FE0415050406040E1F700C03E
:1002B00000007CCFEBE4F1E000811181043640E0E6
:1002C00014070CF040C0EBE4F1E0808191810A97C3
:1002D000D4F14AE050E0EBE4F1E0008111810E94AA
:1002E000A303405D4A834AE050E0EBE4F1E0008183
:1002F00011810E94A303EBE4F1E0008311834AE043
:1003000050E0EBE4F1E0008111810E94A303405D25
:10031000498300E30883E0E0F0E006C0DE01AE0FB1
:10032000BF1F0C91C1DE3196E53000E0F007B4F359
:100330000BDF4FE352E46FE0415050406040E1F783
:1003400000C0000033CFEBE4F1E0808191810A9797
:1003500064F5EBE4F1E080819181019734F14AE0AA
:1003600050E0EBE4F1E0008111810E94A303405DC5
:100370004A8300E3098300E30883E0E0F0E006C07D
:10038000DE01AE0FBF1F0C918FDE3196E53000E02D
:10039000F007B4F3D9DE4FE352E46FE04150504030
:1003A0006040E1F700C0000001CFEBE4F1E0008124
:1003B000118111230AF0FACE0DE276DE0DE274DE31
:1003C0000DE272DEC1DEF2CEE5E5F1E000811181E1
:1003D0000217130799F09EDE80E090E007C0FE014F
:1003E0003596E80FF91F00815FDE01968A3000E044
:1003F0009007ACF3E5E5F1E020813181EBE4F1E039
:1004000000811181043640E01407ACF4EBE4F1E024
:1004100080819181C2977CF004E446DE01E344DEF2
:1004200087DE4FEF50E762E0415050406040E1F717
:1004300000C00000BBCEEBE4F1E080819181C29767
:10044000ACF4EBE4F1E08081918144977CF004E42A
:100450002BDE02E329DE6CDE4FEF50E762E0415015
:1004600050406040E1F700C00000A0CEEBE4F1E0B6
:100470008081918144970CF08CCEEBE4F1E0008117
:10048000118111230AF485CE04E40EDE03E30CDEB1
:100490004FDE4FEF50E762E0415050406040E1F7DF
:1004A00000C0000083CEFA93EA935A934A933A939A
:1004B0002A931A930A935FB700914F01109150014C
:1004C0002091510130915201003345E7140740E07B
:1004D000240740E0340774F4EFE4F1E00081118177
:1004E000228133810F5F1F4F2F4F3F4F00831183B6
:1004F000228333835FBF09911991299139914991E1
:100500005991E991F9911895FA93EA931A920A92FE
:100510005A934A933A932A931A930A933FB7E091D6
:100520004D01F0914E01319709F079C000E0009340
:100530008100009184001091850000362DE612079D
:1005400038F00FEF00934B010FEF00934C0155C0B3
:100550000091840010918500003921E0120738F4E1
:100560000FEF00934B010FEF00934C0146C0009139
:10057000840010918500003426E0120768F44CE6F0
:1005800050E000918400109185000E949003009338
:100590004B0110934C0131C00091840010918500F3
:1005A000003426E01207A8F0009184001091850025
:1005B000043629E1120768F442E750E00091840014
:1005C000109185000E94900300934B0110934C0101
:1005D00014C00091840010918500043629E11207AF
:1005E00060F043E750E000918400109185000E9484
:1005F000900300934B0110934C0100E010E0109326
:1006000085000093840000E000934D0100E000931A
:100610004E0100E00093530100E00093540100916B
:100620004D0110914E01012B89F4E0915301F0919D
:100630005401319759F400918100026000938100C8
:1006400001E000934D0100E000934E013FBF09918E
:100650001991299139914991599109901990E991EC
:10066000F9911895FA93EA935A934A933A932A93F5
:100670001A930A935FB700914F0110915001209196
:10068000510130915201003345E7140740E024073F
:1006900040E0340729F50091550110915601012BD6
:1006A00039F401E00093550100E0009356010CC0BD
:1006B000E0915501F0915601319731F400E000933B
:1006C000550100E00093560100E000934F0100E067
:1006D0000093500100E00093510100E000935201AB
:1006E0005FBF099119912991399149915991E991E6
:1006F000F99118950C94F3030FE30DBF01E00EBFC1
:10070000C0E2D1E00E94CB03002311F00E94D90384
:100710000E94B0000E948E030C947A030C947A031A
:1007200000241124E0E1001F111FEA9542F0001C93
:10073000111C04161506B8F3041A150AF4CFA0010B
:10074000009510950895FF27552312F4F1600FD0FE
:10075000112312F4F09507D00E949003F0FD03D00E
:10076000F1FD05C00895119501951040089551952A
:10077000419550400895AF93BF93D80101900D92D9
:1007800041505040D9F7BF91AF910895BA93AA93C1
:100790009A938A93089501E0089520E02D930150E3
:1007A0001040E1F7089525912D9301501040D9F79D
:1007B000089588EE97E0FC0105911491FC013296B2
:1007C000A591B491FC01349625913491422F432B8D
:1007D00019F0F901E8DF01C0E0DF069617E0843F79
:1007E000910748F30895FFCF0B004001F4070C0078
:0F07F0004B0100004F626A65637420696E200040
:00000001FF
